S01B0000576F6E6465724765636B6F5F4D415833353130332E73333740
S11300000080002095010000C1010000C101000032
S1130010C1010000C1010000C1010000C1010000D4
S1130020C1010000C1010000C1010000C1010000C4
S1130030C1010000C1010000C1010000C1010000B4
S113004075480000AD0B000095360000C1010000AA
S1130050C1010000C1010000C1010000C101000094
S1130060C1010000C1010000C1010000D50B000066
S1130070C1010000C1010000C1010000C101000074
S1130080C1010000C1010000C1010000C101000064
S1130090C1010000C1010000C1010000C101000054
S11300A0C1010000C1010000C1010000C101000044
S11300B0C1010000C1010000FD110000C1010000E8
S11300C0C1010000C1010000C1010000C101000024
S11300D0C1010000C1010000C1010000C101000014
S11300E010B5054C237833B9044B13B10448AFF36E
S11300F000800123237010BD0002002000000000D6
S11301004089000008B5034B1BB103490348AFF312
S1130110008008BD000000000402002040890000A7
S1130120154B002B08BF134B9D46A3F5803A0021C5
S11301308B460F461348144A121A06F046F90F4B21
S1130140002B00D098470E4B002B00D0984700207E
S1130150002104000D000D48002802D00C48AFF324
S1130160008006F003F92000290005F01FFD06F0C9
S1130170E9F800BF00000800008000200000000033
S11301800000000000020020D8070020000000004A
S113019000000000064880470649074A074B9A4278
S11301A0BEBF51F8040B42F8040BF8E7FFF7B8FFA1
S11301B0410300004C890000000000208001002061
S11301C0FEE700BF80B400AF044BDB6C1B0EDBB258
S11301D01846BD465DF8047B704700BFB081E00F50
S11301E080B582B000AF00F01FF87860074B5B6801
S11301F003F00F037A6822FA03F37B60044A7B68F6
S113020013607B6818460837BD4680BD00800C40EB
S11302100800002080B400AF024B1846BD465DF8CC
S1130220047B7047006CDC0280B582B000AF334BB6
S1130230DB6A03F47053B3F5805F0AD0B3F5005F53
S113024003D0B3F5006F08D00BE02D4B1B687B6027
S113025047E04FF400437B6043E02A4B1B687B601C
S11302603FE0264BDB6803F4E063B3F5007F1BD06B
S1130270B3F5007F05D8002B24D0B3F5807F16D0CA
S11302802BE0B3F5806F09D0B3F5A06F03D0B3F5BD
S1130290407F06D021E01C4B7B6021E01B4B7B6040
S11302A01EE01B4B7B601BE01A4B7B6018E0FFF7E2
S11302B089FF0346122B02D9174B7B6010E0174BC2
S11302C07B600DE0FFF77EFF0346122B02D9144B2F
S11302D07B6005E0134B7B6002E000237B6000BF82
S11302E000BF064B1B689B0B03F0070301337A68BE
S11302F0B2FBF3F318460837BD4680BD00800C40BE
S11303000400002000000020003FAB01406F4001CA
S1130310809FD500C0D8A70040B56400C0CF6A0054
S1130320804F120040420F0080B400AF034B1B68A3
S11303301846BD465DF8047B704700BF00000020EE
S113034080B400AF064BD3F88830054A43F47003F9
S1130350C2F8883000BFBD465DF8047B704700BF1B
S113036000ED00E080B400AF4FF400431846BD46F2
S11303705DF8047B704780B400AF4FF47A7318467D
S1130380BD465DF8047B704780B400AF034B1B6827
S11303901846BD465DF8047B704700BF040000208A
S11303A080B483B000AF03463960FB7197F907301E
S11303B0002B0BDA3B68DAB20C49FB7903F00F032C
S11303C0043B5201D2B20B441A7609E03B68DAB21C
S11303D0074997F907305201D2B20B4483F800233E
S11303E000BF0C37BD465DF8047B704700ED00E0AC
S11303F000E100E080B584B000AF78603960254B3F
S11304001B7883F00103DBB2002B01D0224B3DE0CB
S11304107B68002B01D1214B38E004F09DF8B860D3
S11304200023FB602BE01E49FA6813469B0013442B
S11304309B000B4410331B7883F00103DBB2002BC9
S11304401AD0FA687B681A601549FA6813469B004B
S113045013449B000B44103301221A701049FA68AC
S113046013469B0013449B000B4400221A60B86897
S113047004F082F8002309E0FB680133FB60FB68A9
S11304800B2BD0DDB86804F077F8064B184610370C
S1130490BD4680BD1C020020028000F0018000F0F7
S11304A020020020048000F080B584B000AF04F086
S11304B053F8B860194B1B78002B04D0B86804F0CB
S11304C05BF8174B25E0154B01221A70B86804F04D
S11304D053F80023FB600CE01249FA6813469B00B2
S11304E013449B000B44103300221A70FB68013341
S11304F0FB60FB680B2BEFDD04210020FFF750FFAE
S113050000233B70084B7B603B46184604F022FBFB
S1130510002318461037BD4680BD00BF1C020020D2
S1130520038000F0200200200005002080B58CB07C
S113053008AFF860B9607A603B60BB6A07937B6A76
S1130540069397F820300593FB6904933B7E03934D
S1130550002302933B6801937B680093BB68FA68AD
S11305600021002000F042F9034618461037BD462A
S113057080BD80B58CB008AFF860B9607A603B602C
S1130580BB6A07937B6A069397F820300593FB694F
S113059004933B7E0393002302933B6801937B689F
S11305A00093BB68FA680121002000F01FF903469C
S11305B018461037BD4680BD80B582B000AF786064
S11305C0134B1B7883F00103DBB2002B01D0114BDA
S11305D019E07B680B2B01D90F4B14E00F497A68A3
S11305E013469B0013449B000B4410331B7883F089
S11305F00103DBB2002B01D0094B04E00021786831
S113060004F08CFA002318460837BD4680BD00BFAD
S11306101C020020028000F0018000F02002002073
S1130620078000F080B582B000AF7860134B1B7870
S113063083F00103DBB2002B01D0114B19E07B687E
S11306400B2B01D90F4B14E00F497A6813469B001A
S113065013449B000B4410331B7883F00103DBB27B
S1130660002B01D0094B04E00121786804F056FA0C
S1130670002318460837BD4680BD00BF1C02002079
S1130680028000F0018000F020020020078000F0CA
S113069080B582B000AF78603960194B1B7883F065
S11306A00103DBB2002B01D0164B25E07B680B2B3A
S11306B002D83B68002B01D1134B1DE013497A6823
S11306C013469B0013449B000B4410331B7883F0A8
S11306D00103DBB2002B01D00D4B0DE0786804F070
S11306E005FA0346002B03D03B6801221A7002E08E
S11306F03B6800221A70002318460837BD4680BDA7
S11307001C020020028000F0018000F02002002082
S1130710078000F080B586B000AFF8600B467A60C1
S1130720FB72FA6813469B0013449B000B4A134464
S11307307B617B691B68002B0CD07B699B685A1C0E
S11307407B699A607B691B687A6991687A695268E7
S1130750F868984700BF1837BD4680BD20020020C6
S113076080B58AB004AFF8600B467A60FB7201234F
S1130770FB75FA6813469B0013449B001A4A134402
S11307803B613B691B68002B1AD03B699B685A1C70
S11307903B699A603B691B683A6991683A69526897
S11307A0F86898470346002B14BF01230023DBB2EB
S11307B083F00103DBB2FB75FB7D03F00103FB75E2
S11307C03B69DB68013B1A46F97AFB7D029301928F
S11307D00023009300230022F86804F0E5F900BF29
S11307E01837BD4680BD00BF2002002080B58EB002
S11307F004AFBA607B600346FB730B46BB73844B48
S11308001B7883F00103DBB2002B01D0814BFAE0AB
S1130810BB680B2B0FD83B6B002B0CD07B6B002BD6
S113082009D03B6CB3F5806F05DCFB7B012B04D155
S1130830BB6B002B01D1784BE5E0BA6813469B00F3
S113084013449B00754A13447B627B6A1B7C83F0D0
S11308500103DBB2002B01D0714BD4E0FB7B002BF6
S113086009D17049BA6813465B0013449B000B44DA
S11308706D4A1A6008E06B49BA6813465B0013447A
S11308809B000B44694A1A606649BA6813465B00C8
S113089013449B000B44043300221A6000233B766C
S11308A0BB6C002B02D1FB7B012B02D101237B7695
S11308B001E000237B767B68FB61BA6813465B002A
S11308C013449B00574A13443B6207F1180319462B
S11308D0B86804F08DF8BB7B002B19D197F83C3035
S11308E0002B10D097F84430002B02D100237B74E6
S11308F00BE097F84430012B02D101237B7404E010
S113090002237B7401E003237B7403233B7418E00C
S113091097F83C30002B10D097F84430002B02D1CC
S113092000233B740BE097F84430012B02D10123E0
S11309303B7404E002233B7401E003233B74032370
S11309407B7497F84430BB740023FB7400233B751D
S113095007F110031A460121B86804F08FF8FB7BF5
S1130960012B06D107F110031A460021B86804F0E0
S113097085F87B6ABA6C1A607B6AFA6C5A607B6A87
S113098000229A607B6A3A6CDA600122BB689A4062
S1130990274B03F5805308331A60FB7B002B0BD1E4
S11309A03B6C013B01937B6B00933B6B0022012169
S11309B0B86803F0CDFF25E0BB7B002B11D13B6C65
S11309C0013B1A463B6C013B0393BB6B02933B6BAD
S11309D0019300927B6B3A6B0021B86803F0DAFF55
S11309E010E03B6C013B1A463B6C013B0393BB6B31
S11309F002937B6B01930092BB6B3A6B0021B86846
S1130A0003F0C8FF002318462837BD4680BD00BF49
S1130A101C020020028000F0018000F0200200206F
S1130A20078000F010030020150700006107000094
S1130A3000200C4080B483B000AF0346FB71FB7907
S1130A4003F01F02074997F907305B09012000FAF8
S1130A5002F241F8232000BF0C37BD465DF8047B49
S1130A60704700BF00E100E080B483B000AF0346EC
S1130A70FB71FB7903F01F02074997F907305B0903
S1130A80012000FA02F2603341F8232000BF0C3742
S1130A90BD465DF8047B704700E100E080B483B09C
S1130AA000AF7860044A7B68C2F81C3100BF0C3781
S1130AB0BD465DF8047B70470060004080B483B09D
S1130AC000AF074BD3F810317B60054BD3F81421EA
S1130AD07B68134018460C37BD465DF8047B7047AD
S1130AE00060004080B485B000AF78607B68FB6034
S1130AF0FB6893FAA3F3BB60BB68B3FA83F31846AD
S1130B001437BD465DF8047B704780B500AF0B20F9
S1130B10FFF7AAFF0B20FFF78DFF0120FFF7A4FFCB
S1130B200120FFF787FF00BF80BD000080B584B0BF
S1130B3000AF03463960FB7103F00EFDF860FB79EA
S1130B4005493A6841F82320F86803F015FD00BF11
S1130B501037BD4680BD00BFA003002080B584B01F
S1130B6000AF786019E07868FFF7BCFFF8600122F5
S1130B70FB6802FA03F3DB431A467B6813407B608D
S1130B80094AFB6852F82330BB60BB68002B04D0D1
S1130B90FB68DAB2BB68104698477B68002BE2D149
S1130BA000BF1037BD4680BDA003002080B582B0D1
S1130BB000AFFFF783FF024645F2555313407B60B5
S1130BC07868FFF76BFF7868FFF7C8FF00BF083746
S1130BD0BD4680BD80B582B000AFFFF76FFF02460F
S1130BE04AF6AA2313407B607868FFF757FF7868BA
S1130BF0FFF7B4FF00BF0837BD4680BD80B483B0A3
S1130C0000AF0346FB71FB7903F01F02074997F914
S1130C1007305B09012000FA02F241F8232000BFEB
S1130C200C37BD465DF8047B704700BF00E100E06F
S1130C3080B483B000AF0346FB71FB7903F01F025D
S1130C40074997F907305B09012000FA02F2603383
S1130C5041F8232000BF0C37BD465DF8047B704784
S1130C6000E100E080B400AF034B5B681846BD466A
S1130C705DF8047B704700BF0000084080B483B077
S1130C8000AF7860044A7B68936100BF0C37BD46AF
S1130C905DF8047B704700BF0000084080B483B057
S1130CA000AF7860064BDA697B68DB430449134084
S1130CB0CB6100BF0C37BD465DF8047B704700BFB5
S1130CC00000084080B483B000AF7860054BDA6957
S1130CD004497B681343CB6100BF0C37BD465DF804
S1130CE0047B70470000084080B483B000AF064B1B
S1130CF0DB697B60044B1A697B68134018460C3728
S1130D00BD465DF8047B70470000084080B586B09E
S1130D1000AF786000237B6100233B6103F01CFC7F
S1130D20F86002E07B6901337B617B69032B0ADC99
S1130D3016497A6913469B001344DB000B441E33A7
S1130D401B78002BEED17B69042B02D1104B3B6145
S1130D5014E07B68002B0FD00C497A6913469B0082
S1130D601344DB000B441E3301221A707A697B683A
S1130D701A6000233B6101E0064B3B61F86803F015
S1130D80FBFB3B6918461837BD4680BDE0030020D5
S1130D90011000F0041000F080B500AF1D4B1B786B
S1130DA0002B01D0002332E01A4B01221A700121DA
S1130DB0194802F0FDFF0221184803F0FBF908214D
S1130DC0174802F0DFFE0121154802F0F1FF154833
S1130DD004F0C2F90720FFF761FF0720FFF74EFF79
S1130DE004F0E2F91E20FFF723FF1E20FFF706FFA1
S1130DF0A02200210C4805F0E8FA0C4B00221A70DE
S1130E000B4B00221A700B4B00221A600023184669
S1130E1080BD00BF8A0400200043020002001C00C1
S1130E208016120070870000E00300208804002070
S1130E30890400208404002090B58FB000AFF860CE
S1130E407A603B600B46FB720023FB62FB68032B5A
S1130E5001D98E4B8DE103F07FFBB8628C49FA68AF
S1130E6013469B001344DB000B441E331B7883F0B2
S1130E700103DBB2002B04D0B86A03F07DFB854B81
S1130E8077E17B68002B0BD13B68002B03D03B68D8
S1130E90B96CF8689847B86A03F06EFB002368E100
S1130EA0FFF7E0FE38637A49FA6813469B0013445F
S1130EB0DB000B4418333A681A607B6819464FF01C
S1130EC000024FF000034FF00004D40344EA5144FD
S1130ED0CB0313F57A6044F100014FF4FA524FF05A
S1130EE0000305F08BF803460C4619462246684C6D
S1130EF0F86803469B000344DB0023440833C3E93A
S1130F000012FB7A012B28D17B684FF47A7202FB22
S1130F1003F15F48FA6813469B001344DB00034463
S1130F200833D3E900341A46F42303FB02F3CB1A43
S1130F3018465749FA6813469B001344DB000B44D8
S1130F40103318605249FA6813469B001344DB00BF
S1130F500B4414337A221A6017E04D49FA68134699
S1130F609B001344DB000B440833D3E9003413F132
S1130F70FF3144F1FF32464CF86803469B000344BA
S1130F80DB0023440833C3E900124149FA681346DD
S1130F909B001344DB000B440833D3E90034591C91
S1130FA044F100023A4CF86803469B000344DB001A
S1130FB02344C3E900123649FA6813469B001344DC
S1130FC0DB000B441C3301221A703149FA681346C2
S1130FD09B001344DB000B441F33FA7A1A702C492C
S1130FE0FA6813469B001344DB000B442033BA6CAD
S1130FF01A60294B1B78002B04D0B86A03F0BCFAA2
S11310000023B6E0254B1B68B3F1FF3F04D0234B0C
S11310101B680133214A1360214B1B7883F00103C1
S1131020DBB2002B42D03B6B23F07F431D4A13609D
S11310300220FFF723FE1649FA6813469B00134467
S1131040DB000B44D3E90034C7E90634164B7B615B
S11310507B6919464FF00002D7E90634A24208BF63
S1131060994201D20B4614463B613A6B3B691344E7
S113107023F07F431946002004F03EF80220FFF7D6
S113108021FE074B01221A7066E000BF021000F037
S1131090E0030020031000F08804002084040020F2
S11310A089040020800400209BFFFF00334B1B6851
S11310B0012B51D13249FA6813469B001344DB00DB
S11310C00B441C3300221A700220FFF7E7FD3B6B30
S11310D01A022C4B1B681B02D31A1B0A7B637B6B03
S11310E06FF07F42934201D100237B63786B00F061
S11310F0E1F800F047FAFB6A002B09D12049FA68AD
S113110013469B001344DB000B441C3301221A706A
S1131110FB6A0133FB62386B00F066FAFFF7A2FD4D
S113112038633B6B1A02174B1B681B02D31A1B0A4A
S11311307B63002003F0C2FF03461A02114B1B68B5
S11311401B02D31A1B0A7B620F4B1B78002B03D0A4
S11311507A6B7B6A9A42B7D8084B1B68002B04D081
S1131160064B1B68013B054A1360B86A03F004FA96
S1131170002318463C37BD4690BD00BF84040020C0
S1131180E0030020800400208904002080B584B09E
S113119000AF78607B68032B01D9154B23E003F083
S11311A0DBF9F86013497A6813469B001344DB00AB
S11311B00B441E331B7883F00103DBB2002B04D0F5
S11311C0F86803F0D9F90C4B0DE00A497A68134624
S11311D09B001344DB000B441C3300221A70F86894
S11311E003F0CAF9002318461037BD4680BD00BF7E
S11311F0021000F0E0030020031000F080B586B078
S113120000AF03F0A9F93861FFF76EFDF860FB68E1
S113121023F003031846FFF731FDFB6803F00203D4
S1131220002B39D0204B01221A70FFF71BFD786187
S11312300220FFF733FD7B691A021C4B1B681B025B
S1131240D31A1B0ABB60B86800F034F800F09AF9AE
S1131250786900F0C9F9FFF705FD78617B691A0226
S1131260124B1B681B02D31A1B0ABB60002003F03D
S113127025FF03461A020D4B1B681B02D31A1B0AD7
S11312807B600B4B1B78002B03D0BA687B689A42B7
S1131290CED8054B00221A70386903F06DF900BFEF
S11312A01837BD4680BD00BF88040020800400209C
S11312B089040020F0B587B000AF786000237B611B
S11312C056E1AF497A6913469B001344DB000B4493
S11312D01D3300221A70AA497A6913469B001344ED
S11312E0DB000B441C331B78002B00F03E81A44927
S11312F07A6913469B001344DB000B44D3E90034A2
S11313007A6811464FF00002A24208BF99421AD2ED
S11313109B497A6913469B001344DB000B44D3E9D1
S113132000567B684FF0000429463246C91A62EB26
S11313300402934C786903469B000344DB00234476
S1131340C3E9001211E18E497A6913469B001344E4
S1131350DB000B441F331B78002B0AD188497A69C0
S113136013469B001344DB000B441C3300221A7009
S1131370E6E07B6819464FF00002814C7869034629
S11313809B000344DB002344D3E900560B46144678
S11313905B1B64EB0604C7E9023479497A69134696
S11313A09B001344DB000B440833D3E90045744924
S11313B07A6913469B001344DB000B440833D3E9DA
S11313C00023D7E9020104F019FEA41A65EB030512
S11313D021462A466A4C786903469B000344DB0095
S11313E02344C3E9001266497A6913469B001344F7
S11313F0DB000B4410331B68002B50DD60497A6915
S113140013469B001344DB000B44143319685C48F7
S11314107A6913469B001344DB00034410331B68B2
S1131420194457487A6913469B001344DB0003446C
S11314301433196052497A6913469B001344DB0044
S11314400B4414331B68F32B7AD94D497A6913463C
S11314509B001344DB000B44D3E90034591C44F1D2
S11314600002474C786903469B000344DB00234495
S1131470C3E9001242497A6913469B001344DB0016
S11314800B4414331B68A3F1F4013D487A691346F5
S11314909B001344DB0003441433196050E03849C3
S11314A07A6913469B001344DB000B441433196818
S11314B033487A6913469B001344DB00034410331A
S11314C01B68C91A2E487A6913469B001344DB0033
S11314D00344143319602A497A6913469B00134460
S11314E0DB000B4414331B68F32B29D924497A6994
S11314F013469B001344DB000B44D3E9003413F17F
S1131500FF3144F1FF321E4C786903469B000344CB
S1131510DB002344C3E9001219497A6913469B008E
S11315201344DB000B4414331B68A3F1F401144887
S11315307A6913469B001344DB0003441433196097
S11315400F497A6913469B001344DB000B4418339C
S11315501B68002B09D00A497A6913469B0013447F
S1131560DB000B441D3301221A707B6901337B615C
S11315707B69032B7FF7A5AE00BF1C37BD46F0BDCA
S1131580E003002090B583B000AF00237B6022E02D
S113159014497A6813469B001344DB000B441D3343
S11315A01B78002B14D00F497A6813469B00134410
S11315B0DB000B4418331C6878680A497A681346C0
S11315C09B001344DB000B4420331B681946A047DF
S11315D07B6801337B607B68032BD9DD00BF0C374C
S11315E0BD4690BDE003002090B58BB000AF78609D
S11315F04FF0FF334FF0FF34C7E9063400237B621A
S113160027E038497A6A13469B001344DB000B44F5
S11316101C331B78002B19D032497A6A13469B007D
S11316201344DB000B44D3E90012D7E90634A24289
S113163008BF99420AD22B497A6A13469B00134485
S1131640DB000B44D3E90034C7E906347B6A013379
S11316507B627B6A032BD4DD234B00221A70D7E90B
S11316600634B4F1FF3F08BFB3F1FF3F35D0D7E9EB
S11316700634C7E904341D4BFB60FB6819464FF080
S11316800002D7E90434A24208BF994201D20B46B2
S11316901446C7E90634164B1B7883F00103DBB20A
S11316A0002B05D07B6823F07F43124A136002E0CD
S11316B0104A7B6813600220FFF7E0FABA697B687E
S11316C0134423F07F431946002003F015FD064B15
S11316D001221A700220FFF7F5FA00BF2C37BD462D
S11316E090BD00BFE0030020890400209BFFFF00A1
S11316F08804002080040020B0B58AB000AF786070
S11317003960884B07F108041D460FCD0FC495E8D6
S1131710030084E803007B68002B01D1824BFDE0C9
S11317203B68002B01D1814BF8E0582200217868F6
S113173004F04BFE3B681B687D4A93420AD17B68E8
S11317407C4ADA647B687C4A5A627B684FF44022A4
S11317509A6221E03B681B68784A93420AD17B680D
S1131760774ADA647B68774A5A627B684FF450227E
S11317709A6211E03B681B68734A93420AD17B6802
S1131780724ADA647B68724A5A627B684FF4602258
S11317909A6201E0654BC1E07A683B6814461D46D5
S11317A00FCD0FC495E8070084E807003B685B7D14
S11317B0012B01D10123BB753B689B7D002B02D11A
S11317C000233B8319E03B689B7D012B03D14FF43D
S11317D000733B8311E03B689B7D022B03D14FF4E4
S11317E080733B8309E03B689B7D032B03D14FF45B
S11317F040733B8301E04D4B90E03B681B7D012B24
S113180005D100237B754FF47A733B6102E03B689A
S11318109B683B6101214F4802F0CAFA01214E48FE
S113182002F0C6FA7B68DB6C0121184602F0C0FAAC
S11318303B681B6807F108021146184603F0D2FD05
S11318403B681B7D002B0BD13B68DB7D002B07D154
S11318503B681B681A683B681B6842F480321A6054
S11318603B68DB7D002B09D13B681B791B021A46C0
S11318703B681B6842F00F025A6508E03B681B791D
S11318801B021A463B681B6842F00B025A65012191
S1131890786800F0DBF878627B6A002B01D07B6A01
S11318A03CE002F059FE38622C4B1B7883F00103B4
S11318B0DBB2002B08D0294B01221A70386A02F0DF
S11318C05BFEFFF769FA02E0386A02F055FE3B68F6
S11318D01B7D012B09D17B6854331846FFF716FA98
S11318E00346002B01D01E4B18E0FEF7DDFD7B689C
S11318F01C3300211846FEF77DFD0346002B01D062
S1131900184B0BE07B68203300211846FEF772FD6C
S11319100346002B01D0134B00E000231846283760
S1131920BD46B0BD74870000012000F0022000F025
S113193000C000400002040001000C0000C400408C
S11319400012040001000D0000C800400022040041
S113195001000E004081040000D204008B0400202A
S1131960042000F0092000F080B588B002AFF860D0
S1131970B9607A603B60FB681B7D012B01D1114B80
S11319801CE03A68B968F86800F024FC78617B6967
S1131990002B01D07B6911E07B68002B01D10A4B3D
S11319A00CE00A4B00933B687A68B968F86800F069
S11319B053FBF86800F046FCFB685B6C184618376C
S11319C0BD4680BD082000F0022000F0251A00006A
S11319D080B586B000AFF860B9607A60FB681B7DA3
S11319E0012B01D10D4B15E07A68B968F86800F055
S11319F0F1FB78617B69002B01D07B690AE0084B1D
S1131A007A68B968F86800F085FBF86800F01AFC99
S1131A10FB685B6C18461837BD4680BD082000F093
S1131A20251A000080B485B000AFF860B9607A6010
S1131A30FB68BA685A64FB68012283F8502000BF2F
S1131A401437BD465DF8047B7047000080B58AB04A
S1131A5000AF78600B46FB707B681B79FB607B688A
S1131A601B689B4A934240F00B81FB68002B1BD000
S1131A70FB68012B16D0FB68022B11D0FB68032BEB
S1131A800CD0FB68042B07D0FB68052B01D1022383
S1131A900BE04FF0FF3308E0012306E0042304E0E9
S1131AA0022302E0042300E00423BB61FB68002B53
S1131AB01BD0FB68012B16D0FB68022B11D0FB68EE
S1131AC0032B0CD0FB68042B07D0FB68052B01D13A
S1131AD002230BE04FF0FF3308E0012306E0042368
S1131AE004E0022302E0042300E004237B61FB689A
S1131AF0002B1BD0FB68012B16D0FB68022B11D0E6
S1131B00FB68032B0CD0FB68042B07D0FB68052B68
S1131B1001D101230BE04FF0FF3308E0012306E07D
S1131B20022304E0022302E0042300E004233B61D7
S1131B30FB68002B1BD0FB68012B16D0FB68022B23
S1131B4011D0FB68032B0CD0FB68042B07D0FB6877
S1131B50052B01D101230BE04FF0FF3308E00123F3
S1131B6006E0022304E0022302E0042300E004234D
S1131B707A68D363FB68002B1BD0FB68012B16D05B
S1131B80FB68022B11D0FB68032B0CD0FB68042BE1
S1131B9007D0FB68052B01D100230BE04FF0FF3386
S1131BA008E0072306E00D2304E00B2302E00723EB
S1131BB000E00A237B62FB68002B1BD0FB68012B2F
S1131BC016D0FB68022B11D0FB68032B0CD0FB68EA
S1131BD0042B07D0FB68052B01D101230BE04FF048
S1131BE0FF3308E0082306E00C2304E00A2302E0A4
S1131BF0062300E00B233B62FB68002B1BD0FB6831
S1131C00012B16D0FB68022B11D0FB68032B0CD0E0
S1131C10FB68042B07D0FB68052B01D10D230BE0D7
S1131C204FF0FF3308E00D2306E00F2304E00923FF
S1131C3002E0052300E00C23FB61FB68002B1BD0B2
S1131C40FB68012B16D0FB68022B11D0FB68032B19
S1131C500CD0FB68042B07D0FB68052B01D10E23A5
S1131C600BE04FF0FF3308E00E2306E00E2304E000
S1131C70082302E0042300E00D237A6813640EE1D4
S1131C807B681B68134A934240F09780FB68002BE3
S1131C900CD0FB68012B07D0FB68022B01D1032376
S1131CA005E04FF0FF3302E0032300E00223BB61B1
S1131CB0FB68002B10D0FB68012B07D0FB68022BBC
S1131CC001D1032309E04FF0FF3306E0032304E0CE
S1131CD000C0004000C4004002237B61FB68002B6D
S1131CE00CD0FB68012B07D0FB68022B01D1052324
S1131CF005E04FF0FF3302E0032300E001233B61E2
S1131D00FB68002B0CD0FB68012B07D0FB68022B6F
S1131D1001D1052305E04FF0FF3302E0032300E087
S1131D2001237A68D363FB68002B0CD0FB68012B7A
S1131D3007D0FB68022B01D1072305E04FF0FF33E6
S1131D4002E0002300E000237B62FB68002B0CD040
S1131D50FB68012B07D0FB68022B01D1062305E0A9
S1131D604FF0FF3302E0012300E001233B62FB68F4
S1131D70002B0CD0FB68012B07D0FB68022B01D190
S1131D80002305E04FF0FF3302E0022300E00723C5
S1131D90FB61FB68002B0CD0FB68012B07D0FB68B0
S1131DA0022B01D1012305E04FF0FF3302E00323AE
S1131DB000E008237A68136471E07B681B688B4A2F
S1131DC093426AD1FB68002B07D0FB68012B01D139
S1131DD0012303E04FF0FF3300E00223BB61FB6803
S1131DE0002B07D0FB68012B01D1012303E04FF046
S1131DF0FF3300E002237B61FB68002B07D0FB6804
S1131E00012B01D1012303E04FF0FF3300E0022353
S1131E103B61FB68002B07D0FB68012B01D1012338
S1131E2003E04FF0FF3300E002237A68D363FB68DA
S1131E30002B07D0FB68012B01D1032303E04FF0F3
S1131E40FF3300E002237B62FB68002B07D0FB68B2
S1131E50012B01D1042303E04FF0FF3300E00323FF
S1131E603B62FB68002B07D0FB68012B01D10523E3
S1131E7003E04FF0FF3300E00423FB61FB68002B19
S1131E8007D0FB68012B01D1062303E04FF0FF3399
S1131E9000E005237A68136401E0554BA2E0FB7867
S1131EA0002B6BD07B681B7D002B33D1BB69D8B270
S1131EB0796A0023042203F02DF87B69D8B2396AC9
S1131EC00023012203F026F87B689B7D002B03D0BE
S1131ED07B689B7D012B07D13B69D8B2F96900234C
S1131EE0042203F017F806E03B69D8B2F96901232C
S1131EF0042203F00FF87B68DB7D002B71D17B6833
S1131F00DB6BD8B27B681B6C19460123042203F0F7
S1131F1001F866E0BB69D8B2796A0023012202F0B5
S1131F20F9FF7B69D8B2396A0023042202F0F2FF78
S1131F307B689B7D002B03D07B689B7D012B07D1A5
S1131F403B69D8B2F9690023022202F0E3FF06E0FC
S1131F503B69D8B2F9690123022202F0DBFF7B68F6
S1131F60DB7D002B3DD17B68DB6BD8B27B681B6CBF
S1131F7019460123022202F0CDFF32E0BB69D8B238
S1131F80796A0023022202F0C5FF7B69D8B2396A5C
S1131F900023022202F0BEFF7B689B7D002B03D04E
S1131FA07B689B7D012B07D13B69D8B2F96900237B
S1131FB0022202F0AFFF06E03B69D8B2F9690123BF
S1131FC0022202F0A7FF7B68DB7D002B09D17B682E
S1131FD0DB6BD8B27B681B6C19460023002202F02D
S1131FE099FF002318462837BD4680BD00C800402D
S1131FF0022000F080B586B000AFF860B9607A6066
S113200002F0AAFA78617B683B613B6900225A645A
S11320103B69002283F848203B6900229A633B69AC
S11320201B7D012B04D13B695B6D1846FFF7AEF8AD
S11320303B69DB6A002B06D03B69DB6A3A69526B69
S1132040002138699847786902F096FA0123184606
S11320501837BD4680BD000080B58EB006AFF8606D
S1132060B9607A603B60FB68002283F85020FB680B
S11320703A685A63FB681B684FF44062DA60FB6895
S1132080BA6ADA62FB68DB68082B02D90123FB75A4
S113209001E00023FB75FB68DB68082B08D9FB68AB
S11320A01B682433FB61FB681B683C33BB6107E09E
S11320B0FB681B681C33FB61FB681B683433BB6122
S11320C0FB68186AFB68996AFB680493104B0393D6
S11320D0FB7D02933B68019301230093FB697A68BB
S11320E0FEF747FAFB68D869FB68596A0023049332
S11320F000230393FB7D02933B6801930123009328
S1132100BB68BA69FEF712FA00BF2037BD4680BD2E
S1132110F51F000080B58EB006AFF860B9607A6034
S11321203B60FB68002283F85020FB687A685A639E
S1132130FB681B684FF44062DA60FB683A68DA6255
S1132140FB68DB68082B02D90123FB7501E000233F
S1132150FB75FB68DB68082B08D9FB681B68243314
S1132160FB61FB681B683C33BB6107E0FB681B68D1
S11321701C33FB61FB681B683433BB61FB68186A62
S1132180FB68996AFB6803F13002FB680493104B07
S11321900393FB7D02937B68019300230093FB6907
S11321A0FEF7E7F9FB68D869FB68596A00230493D2
S11321B000230393FB7D02937B6801930123009327
S11321C0BB68BA69FEF7B2F900BF2037BD4680BDCF
S11321D0F51F000080B586B000AFF860B9607A6082
S11321E0FB68002B01D1144B21E0BB68002B06D007
S11321F07B68002B03D07B68B3F5806F01DD0F4B48
S113220015E002F0A9F97861FB6893F84830DBB275
S1132210002B04D0786902F0AFF9094B07E0FB68A2
S1132220012283F84820786902F0A6F900231846B1
S11322301837BD4680BD00BF012000F0022000F029
S1132240032000F080B582B000AF7860002002F077
S1132250A1F90346002B0CD001E002F00BFB7B68D4
S113226093F85030DBB283F00103DBB2002BF4D1DE
S113227009E000BF7B6893F85030DBB283F00103C0
S1132280DBB2002BF6D100BF0837BD4680BD80B459
S113229083B000AF786039607B683A689A6400BFA5
S11322A00C37BD465DF8047B704780B485B000AF41
S11322B0786039607B6803F10473DA003B68134487
S11322C09B00FB60FB681B6818461437BD465DF82D
S11322D0047B704780B582B000AF03463960FB7160
S11322E0FB79002B0DD0FB79012B0AD0FB79022B53
S11322F007D0FB79032B04D0FB79042B01D0FB79A5
S1132300052BFA791346DB0013449B001C3303F1BD
S1132310804303F5C04339681846FFF7C6FF0346F8
S113232018460837BD4680BD80B483B000AF03466D
S11323303960FB71FB79002B0DD0FB79012B0AD09E
S1132340FB79022B07D0FB79032B04D0FB79042BF8
S113235001D0FB79052B01223B6802FA03F30849FB
S1132360FA7918461346DB0013449B000B441433DC
S1132370186000BF0C37BD465DF8047B704700BF92
S11323800060004080B483B000AF03463960FB7145
S1132390FB79002B0DD0FB79012B0AD0FB79022BA2
S11323A007D0FB79032B04D0FB79042B01D0FB79F4
S11323B0052B01223B6802FA03F30849FA7918460F
S11323C01346DB0013449B000B441033186000BF1A
S11323D00C37BD465DF8047B704700BF00600040C9
S11323E080B584B002AF396011461A460346FB71CA
S11323F00B46BB7113467B71BA79F8793B7C019328
S11324007B79009313463A68396802F019FD00BFDE
S11324100837BD4680BD000080B485B000AF786049
S11324200023FB6010E00D4AFB6852F823305B7F09
S11324301A467B68934204D1084AFB6852F8233059
S113244006E0FB680133FB60FB68032BEBD9002338
S113245018461437BD465DF8047B7047900400208D
S113246080B582B000AF78607B6893F83130022B7E
S11324700AD17B685A7E7B685B7F19461046FFF75A
S113248029FF0346DBB200E0002318460837BD46A7
S113249080BD80B586B000AF0346FB71FB7918465A
S11324A0FFF7BAFF78617B69002B3ED07B6993F814
S11324B03130022B39D17869FFF7D2FF03461A462F
S11324C07B691A757B695B7D022B2ED17B6993F83E
S11324D02E30DBB2002B28D10023FB737B695B68B1
S11324E007F10F0211461846FEF7D2F838617B69EE
S11324F01B7D002B04D07B6993F82F30002B09D06F
S11325007B69002283F82F207B695B681846FEF7FD
S113251089F80AE03B69002B07D1FB7B002B04D030
S11325207B695B681846FEF747F800BF1837BD465D
S113253080BD80B584B000AF78607B6893F831309B
S1132540022B2FD17B685B7D002B08D17B689A7EA0
S11325507B689B7F19461046FFF7E6FE4AE07B68DE
S11325605B7D012B08D17B689A7E7B689B7F194633
S11325701046FFF707FF3DE07B681B7D002B08D169
S11325807B689A7E7B689B7F19461046FFF7CCFEDA
S113259030E07B689A7E7B689B7F19461046FFF784
S11325A0F1FE27E07B6893F83130012B22D17B6860
S11325B01B7D002B0FD11123FB73786800F0A2FF61
S11325C007F10F0301221946786800F00BFF7868C1
S11325D000F0C2FF0EE01323FB73786800F092FF53
S11325E007F10F0301221946786800F0FBFE7868B2
S11325F000F0B2FF002318461037BD4680BD00002E
S113260080B586B000AFF860B9607A6001F0A4FFCD
S11326107861FB689B889AB2FB68DB889A4207D38F
S11326207B6800221A60786901F0A6FF1D4B35E033
S1132630FB681B889BB21A4613469B0013449B00FD
S11326400833FA6813441422B968184603F0B2FE3A
S1132650FB681B889BB21A4613469B0013449B00DD
S11326600833FA681A447B681A60FB681B889BB2BB
S11326700133FA68D28893FBF2F102FB01F29B1A50
S11326809AB2FB681A80FB689B889BB201339AB2AA
S1132690FB689A80786901F06FFF002318461837A9
S11326A0BD4680BD0A7000F080B584B000AF78608C
S11326B0396001F051FFF8607B689B889BB2002B66
S11326C007D13B6800221A60F86801F055FF164BE9
S11326D025E07B685B889BB21A4613469B00134433
S11326E09B0008337A681A443B681A607B685B88ED
S11326F09BB201337A68D28893FBF2F102FB01F2B8
S11327009B1A9AB27B685A807B689B889BB2013B78
S11327109AB27B689A80F86801F02EFF002318466D
S11327201037BD4680BD00BF0B7000F080B584B08B
S113273000AF7860396001F00FFFF8607B689B8818
S11327409BB2002B07D13B6800221A60F86801F0A5
S113275013FF0B4B10E07B685B889BB21A46134651
S11327609B0013449B0008337A681A443B681A6040
S1132770F86801F001FF002318461037BD4680BDFC
S11327800B7000F080B483B000AF78607B6893F87E
S11327903230002B14D17B681B680422DA6000BF3E
S11327A07B681B681B6903F00203002BF8D07B686D
S11327B01B685A6D7B681B6842F002025A6520E070
S11327C07B6893F83230012B1BD100BF7B681B68F8
S11327D05B6C03F00203002BF8D17B681B680422B6
S11327E05A6000BF7B681B689B6803F00203002BE0
S11327F0F8D07B681B685A6D7B681B6842F0020244
S11328005A6500BF0C37BD465DF8047B704780B441
S113281083B000AF78607B6893F83230002B0CD122
S11328207B681B685A6D7B681B6822F002025A653C
S11328307B681B680822DA6018E07B6893F8323002
S1132840012B13D100BF7B681B685B6C03F0020390
S1132850002BF8D17B681B685A6D7B681B6822F0DB
S113286002025A657B681B6808225A6000BF0C3755
S1132870BD465DF8047B704790B58BB006AF7860B9
S113288039600023FB607B68012283F82D207B687C
S113289093F83230002B04D17B681B683433FB601F
S11328A00EE07B6893F83230012B04D17B681B68FF
S11328B02833FB6004E07B68002283F82D2015E0B8
S11328C07B6858687B68D9683B681A683B685B68B2
S11328D01C467B680493074B0393002302930194E3
S11328E0012300931346FA68FDF720FE1437BD4612
S11328F090BD00BFF928000090B589B000AFF86022
S1132900B9607A607B68FB61FB699B6A07F110021E
S113291011461846FFF70AFFB861BB69214A934282
S113292001D1012339E03B6900221A613B6900228D
S11329309A6001F011FE78613B69DB68002B08D0D6
S11329403B69DC683B691A683B695B680021F8698C
S1132950A047FB699B6A07F1100211461846FFF76E
S1132960A3FEFB699B6A9B889BB2002B0DD0FB697D
S11329709B6A07F1100211461846FFF7D7FE3B6920
S11329801946F869FFF778FF03E0FB69002283F832
S11329902D20786901F0F0FD012318462437BD4647
S11329A090BD00BF0B7000F080B485B000AFF8603C
S11329B0B9607A60FB68002B01D10A4B0CE0BB685C
S11329C0002B06D07B68002B03D07B68B3F5806FA7
S11329D001D9054B00E0002318461437BD465DF8C5
S11329E0047B7047027000F0037000F080B483B081
S11329F000AF786039607B681B689B4A934240F063
S1132A009D803B681B7A002B1FD03B681B7A012BEF
S1132A1019D03B681B7A022B13D03B681B7A032B1B
S1132A200DD03B681B7A042B07D03B681B7A052B1F
S1132A3001D102230AE0FF2308E0012306E0042376
S1132A4004E0022302E0042300E004237A68D3753F
S1132A503B681B7A002B1FD03B681B7A012B19D0D3
S1132A603B681B7A022B13D03B681B7A032B0DD0D7
S1132A703B681B7A042B07D03B681B7A052B01D1DA
S1132A8002230AE0FF2308E0012306E0042304E014
S1132A90022302E0042300E004237A6813763B68EF
S1132AA01B7A002B1FD03B681B7A012B19D03B6883
S1132AB01B7A022B13D03B681B7A032B0DD03B6887
S1132AC01B7A042B07D03B681B7A052B01D100230A
S1132AD00AE0FF2308E0072306E00D2304E00B23AC
S1132AE002E0072300E00A237A68D3763B681B7A66
S1132AF0002B1FD03B681B7A012B19D03B681B7A33
S1132B00022B13D03B681B7A032B0DD03B681B7A36
S1132B10042B07D03B681B7A052B01D101230AE063
S1132B20FF2308E0082306E00C2304E00A2302E064
S1132B30062300E00B237A68137787E17B681B6820
S1132B404A4A934254D13B681B7A002B0DD03B6810
S1132B501B7A012B07D03B681B7A022B01D103237C
S1132B6004E0FF2302E0032300E002237A68D37524
S1132B703B681B7A002B0DD03B681B7A012B07D0D6
S1132B803B681B7A022B01D1032304E0FF2302E0FC
S1132B90032300E002237A6813763B681B7A002B38
S1132BA00DD03B681B7A012B07D03B681B7A022BA4
S1132BB001D1072304E0FF2302E0002300E0002307
S1132BC07A68D3763B681B7A002B0DD03B681B7A5E
S1132BD0012B07D03B681B7A022B01D1062304E0AA
S1132BE0FF2302E0012300E001237A6813772DE13B
S1132BF07B681B681E4A934242D13B681B7A002BB8
S1132C0007D03B681B7A012B01D1012302E0FF238B
S1132C1000E002237A68D3753B681B7A002B07D047
S1132C203B681B7A012B01D1012302E0FF2300E062
S1132C3002237A6813763B681B7A002B07D03B6823
S1132C401B7A012B01D1032302E0FF2300E00223BE
S1132C507A68D3763B681B7A002B0DD03B681B7ACD
S1132C60012B07D1042308E000C0004000C4004049
S1132C7000C80040FF2300E003237A681377E5E0EF
S1132C807B681B687D4A93426CD13B681B7A002B9E
S1132C9013D03B681B7A012B0DD03B681B7A022BA7
S1132CA007D03B681B7A032B01D1022306E0FF23E4
S1132CB004E0002302E0042300E005237A68D375CE
S1132CC03B681B7A002B13D03B681B7A012B0DD079
S1132CD03B681B7A022B07D03B681B7A032B01D17C
S1132CE0022306E0FF2304E0002302E0042300E0C3
S1132CF005237A6813763B681B7A002B13D03B6854
S1132D001B7A012B0DD03B681B7A022B07D03B6842
S1132D101B7A032B01D10E2306E0FF2304E00323D7
S1132D2002E0002300E006237A68D3763B681B7A2E
S1132D30002B13D03B681B7A012B0DD03B681B7A08
S1132D40022B07D03B681B7A032B01D10F2306E02B
S1132D50FF2304E0042302E0012300E007237A6850
S1132D60137773E07B681B68454A93426CD13B68D8
S1132D701B7A002B13D03B681B7A012B0DD03B68C8
S1132D801B7A022B07D03B681B7A032B01D1042347
S1132D9006E0FF2304E0012302E0052300E0022310
S1132DA07A68D3753B681B7A002B13D03B681B7A77
S1132DB0012B0DD03B681B7A022B07D03B681B7A92
S1132DC0032B01D1042306E0FF2304E0012302E0E6
S1132DD0052300E002237A6813763B681B7A002BF4
S1132DE013D03B681B7A012B0DD03B681B7A022B56
S1132DF007D03B681B7A032B01D1022306E0FF2393
S1132E0004E0092302E00A2300E00C237A68D37665
S1132E103B681B7A002B13D03B681B7A012B0DD027
S1132E203B681B7A022B07D03B681B7A032B01D12A
S1132E30032306E0FF2304E00A2302E00B2300E05F
S1132E400D237A68137701E00E4B10E03B685A7C3F
S1132E507B685A763B689A7C7B685A773B68DA7C55
S1132E607B689A763B681A7D7B689A7700231846BC
S1132E700C37BD465DF8047B704700BF00E000409E
S1132E8000E40040037000F080B584B002AF7860C5
S1132E900B46FB70FB78002B4CD07B68D87D7B689D
S1132EA0DB7E19460123042202F034F87B68187E85
S1132EB07B681B7F19460123022202F02BF87B68F2
S1132EC093F83130022B1DD17B68587E7B685B7F81
S1132ED019460023012202F01DF87B68987E7B6866
S1132EE09B7F19460023042202F014F87B68587E65
S1132EF07B685B7F19460123009301230122FFF7BE
S1132F006FFA63E07B6893F83130032B5ED17B6802
S1132F10587E7B685B7F19460023012201F0FAFF8B
S1132F207B68987E7B689B7F19460023042201F00E
S1132F30F1FF4BE07B68D87D7B68DB7E194600237C
S1132F40002201F0E7FF7B68187E7B681B7F19462F
S1132F500023002201F0DEFF7B6893F83130022B5E
S1132F601DD17B68587E7B685B7F19460023002255
S1132F7001F0D0FF7B68987E7B689B7F1946002315
S1132F80002201F0C7FF7B68587E7B685B7F19468F
S1132F900023009301230122FFF722FA16E07B6845
S1132FA093F83130032B11D17B68587E7B685B7FAB
S1132FB019460023002201F0ADFF7B68987E7B68F0
S1132FC09B7F19460023002201F0A4FF002318462A
S1132FD00837BD4680BD000080B485B000AF78607E
S1132FE0234B1B7883F00103DBB2002B10D00023AA
S1132FF0BB6007E01F4ABB68002142F82310BB688E
S11330000133BB60BB68032BF4D9194B01221A703E
S11330100023FB730023BB6017E0164ABB6852F819
S11330202330002B06D0134ABB6852F823307A6849
S11330309A4207D10F49BB687A6841F823200123DB
S1133040FB7305E0BB680133BB60BB68032BE4D9A9
S1133050FB7B83F00103DBB2002B01D0064B00E0C5
S1133060002318461437BD465DF8047B704700BF43
S11330708C04002090040020027000F080B485B01D
S113308000AFF860B9607A60FB68BA685A62FB689E
S11330905B6A00221A80FB685B6A00225A80FB6824
S11330A05B6A00229A80FB68002283F82C20FB686C
S11330B07A689A62FB689B6A00221A80FB689B6AA2
S11330C000225A80FB689B6A00229A80FB680022D7
S11330D083F82D20FB68002283F82F2000BF1437CB
S11330E0BD465DF8047B704780B582B000AF786060
S11330F0FDF70BFD7B685B7F09491846FDF716FD5C
S11331007B6800229A757B6800221A757B6802220C
S11331105A757868FFF70DFA00BF0837BD4680BDC1
S11331209324000080B582B000AF7860FDF7BCF94D
S11331307B68043300211846FDF75CF90346002B35
S113314001D0094B0BE07B68083300211846FDF7DA
S113315051F90346002B01D0034B00E0002318462D
S11331600837BD4680BD00BF0E7000F0B0B58AB010
S113317000AF78603960874B07F108041D460FCD16
S11331800FC495E8030084E803007B68002B01D199
S1133190814BFBE03B68002B01D1804BF6E03422ED
S11331A00021786803F011F97868FFF715FF786259
S11331B07B6A002B01D07B6AE8E03B681A7C7B6861
S11331C083F831203B681A687B681A607B680022A8
S11331D083F832203B681B68714A93420AD17B68AA
S11331E0704A1A627B68704ADA607B684FF4402246
S11331F01A6141E03B681B686C4A93420AD17B68C0
S11332006B4A1A627B686B4ADA607B684FF450221F
S11332101A6131E03B681B68674A93420AD17B68B4
S1133220664A1A627B68664ADA607B684FF46022F9
S11332301A6121E03B681B68624A93420AD17B68A9
S1133240614A1A627B68614ADA607B684FF4301223
S11332501A6111E03B681B685D4A93420AD17B689E
S11332605C4A1A627B685C4ADA607B684FF4341209
S11332701A6101E0494B89E03B6899693B68DB6965
S11332801A467868FFF7FAFE3B685B683B613B6867
S11332905B893B833B689B89FB823B689B7B3B75DB
S11332A03B68DB7BBB7605237B7501214B4800F033
S11332B07FFD01214A4800F07BFD7B681B6A0121E8
S11332C0184600F075FD00233B723B681B6807F14C
S11332D008021146184602F021F83B681B7A1B02CB
S11332E01A463B681B6842F003025A6539687868DD
S11332F0FFF77CFB78627B6A002B01D07B6A45E098
S113330001217868FFF7C0FD78627B6A002B01D049
S11333107B6A3BE001F020F938623B681B7C032B9D
S113332001D11E4B32E03B681B7C022B02D1786832
S1133330FFF7DAFE3B681B684FF0FF311846FEF7D3
S1133340A6FF3B681B7C032B06D13B681B68052149
S1133350184601F0ABFF05E03B681B6804211846E2
S113336001F0A4FF3B681B684FF44062DA60FDF78C
S11333709BF87868FFF7D6FE7862386A01F0FCF8AB
S11333807B6A002B01D07B6A00E0002318462837B3
S1133390BD46B0BD8C870000027000F0037000F0E1
S11333A000C000400002040001000C0000C4004002
S11333B00012040001000D0000C8004000220400B7
S11333C001000E0000E000400032040001002C0067
S11333D000E400400042040001002D00408104008C
S11333E000D2040080B588B000AFF860B9607A609C
S11333F07A68B968F868FFF7D7FAB861BB69002B37
S113340001D0BB697AE0002001F0C4F80346FB75E3
S113341004E0FB7D002B01D001F02CFAFB689B6AD1
S11334209B889BB2002B05D0FB6893F82E30DBB24F
S1133430002BEED0FB6893F83230002B06D1FB68EA
S11334401B681B6903F00203FB610DE0FB6893F842
S11334503230012B06D1FB681B689B6803F0020322
S1133460FB6101E00023FB61FB69002B02D1F868DA
S1133470FFF788F9FB68012283F83020FB6893F892
S11334803230002B17D108E0FB681868BB685A1C5F
S1133490BA601B78194602F06DF87B685A1E7A6090
S11334A0002BF1D100BFFB681B681B6903F02003EC
S11334B0002BF8D01BE0FB6893F83230012B16D1B7
S11334C008E0FB681868BB685A1CBA601B78194688
S11334D001F0C5FD7B685A1E7A60002BF1D100BF54
S11334E0FB681B689B6803F00803002BF8D0FB699A
S11334F0002B02D1F868FFF78AF900231846203719
S1133500BD4680BD80B582B000AF78607B68002B7B
S113351001D1104B1AE07B6893F82E30DBB2002BFC
S11335200AD17868FEF79CFF0346002B04D17B6820
S11335305B681846FDF740F87B6893F82E30DBB2E1
S11335400133DAB27B6883F82E200023184608374B
S1133550BD4680BD027000F080B582B000AF7860D7
S11335607B68002B01D1144B22E07B6893F82E304A
S1133570DBB2002B1BD07B6893F82E30DBB2012B1F
S11335800AD17868FEF76CFF0346002B04D17B68F0
S11335905B681846FDF746F87B6893F82E30DBB27B
S11335A0013BDAB27B6883F82E20002300E0034B52
S11335B018460837BD4680BD027000F0057000F063
S11335C080B58CB000AFF860B9607A603B607A680F
S11335D0B968F868FFF7E8F9F862FB6A002B01D0D4
S11335E0FB6A37E0BB687B617B68BB617B68FB611E
S11335F03B683B62194B7B62FB689B6A07F11002D4
S113360007F114011846FEF7FBFFF862FB6A002B72
S113361001D0FB6A1EE0FB6893F82D30DBB283F027
S11336200103DBB2002B14D000F096FFB862FB68F4
S11336309B6A9B889BB2002B08D03B691946F868AB
S1133640FFF71AF9FB68012283F83020B86A00F00A
S113365093FF002318463037BD4680BD017000F04B
S113366080B483B000AF786039607B683A689A614F
S113367000BF0C37BD465DF8047B704780B483B04F
S113368000AF78607B681B6918460C37BD465DF84F
S1133690047B704780B582B000AF0A48FFF7EEFFA5
S11336A078607B6803F01003002B06D010210548D6
S11336B0FFF7D6FF044B01221A7000BF0837BD463E
S11336C080BD00BF00000140A004002080B487B08A
S11336D000AFF860B9607A60FB6803F10473DA0044
S11336E0BB6813449B007B617B697A681A6000BFE6
S11336F01C37BD465DF8047B704780B485B000AFCD
S1133700786039607B6803F10473DA003B68134422
S11337109B00FB60FB681B6818461437BD465DF8C8
S1133720047B704780B485B000AF78607B68002B61
S113373003D07B68B3F5004F00BF7B68B3FA83F313
S1133740C3F11F03FB60FB6818461437BD465DF8E0
S1133750047B704780B400AF044BDB6C1B0EDBB200
S11337601846BD465DF8047B704700BFB081E00F8A
S113377080B584B000AF78600123FB607B68114A98
S1133780934204D80023FB600023BB6008E07B68FD
S11337900D4A934202D80123BB6001E00223BB60BF
S11337A0FA681E210948FFF791FF084B5B6823F470
S11337B08072BB681B02054913434B6000BF10377E
S11337C0BD4680BD00366E01006CDC0200800C40FA
S11337D080B582B000AF1E210448FFF78EFF7860E9
S11337E07B6818460837BD4680BD00BF00800C408A
S11337F080B582B000AF214B5B6903F4E063B3F59D
S1133800007F1CD0B3F5007F05D8002B25D0B3F57D
S1133810807F1FD02AE0B3F5C06F24D0B3F5E06FEA
S11338201ED0B3F5407F21D1FFF794FF0346122B3E
S113383002D9134B7B601CE0124B7B6019E0FFF74D
S113384089FF0346122B02D90F4B7B6011E00F4B0B
S11338507B600EE00E4B7B600BE00E4B7B6008E060
S11338600D4B7B6005E00D4B7B6002E000237B6029
S113387000BF7B6818460837BD4680BD00800C40F9
S1133880804F120040420F0040B56400C0CF6A0070
S1133890C0D8A700809FD500406F4001003FAB0116
S11338A080B582B000AF0D4800F0D6FB0346FB7034
S11338B0FB78072B05D0092B07D1FCF7B5FC786002
S11338C006E0FFF795FF786002E000237B6000BF0D
S11338D07B6818460837BD4680BD00BF06000E0051
S11338E080B485B000AF78603960204B5B6803F02A
S11338F00703FB60FB68012B01D9042B02D10023D1
S1133900FB7202E00123FB7200BF7B68184A9342FA
S113391007D9FB7A002B01D0052300E00423FB60C8
S113392016E07B68124A93420BD87B68114A934293
S113393007D9FB7A002B01D0032300E00123FB60AD
S113394006E0FB7A002B01D0022300E00023FB6099
S1133950064B5B6823F007020449FB6813434B6082
S113396000BF1437BD465DF8047B704700000C406F
S11339700048E8010024F40080B582B000AF0E4B8B
S1133980DB6B002B14BF01230023FB710A4B41F6B0
S11339907132DA63FCF73EFC034600211846FFF758
S11339A09FFFFB79002B02D0034B0022DA6300BF98
S11339B00837BD4680BD00BF00000C4080B584B010
S11339C000AF786039600C4BDB6B002B14BF012314
S11339D00023FB73084B41F67132DA633968786867
S11339E0FFF77EFFFB7B002B02D0034B0022DA6340
S11339F000BF1037BD4680BD00000C4090B585B0B7
S1133A0000AF78600023BB607B68344A934203D0E4
S1133A10334A934200D000E000BF786800F01CFBFA
S1133A200346FB607B682D4A934203D02C4A9342A1
S1133A3006D00CE02B4B9B6A03F00303FB6006E00B
S1133A40284B9B6A9B0803F00303FB6000BFFB68E1
S1133A50032B39D801A252F823F000BF933A000097
S1133A606D3A0000753A00007D3A0000FCF77AFCDC
S1133A70B8602DE0FCF788FCB86029E0FCF7B0FBE7
S1133A800446FFF7A5FE0346013324FA03F3BB60A3
S1133A901EE00023BB607B68104A934203D07B681E
S1133AA00F4A934213D10F4B9A6A7B680B498B429E
S1133AB001D1102300E0142322FA03F3002B06D0D3
S1133AC0FCF759FCB86002E00023BB6000E000BFD3
S1133AD0BB6818461437BD4690BD00BF02001C00E9
S1133AE003001E0000800C4080B483B000AF7860F7
S1133AF0094B5B6D03F00103002B07D100BF064B9C
S1133B001A6D7B681340002BF9D100E000BF0C371D
S1133B10BD465DF8047B704700800C4080B582B0E0
S1133B2000AF104800F098FA0346FB70FB78032BB3
S1133B3007D0092B09D0022B0BD1FCF725FC7860A8
S1133B400AE0FCF70FFC786006E0FCF76DFB786098
S1133B5002E000237B6000BF7B6818460837BD463F
S1133B6080BD00BF0723240080B400AF00BFBD4662
S1133B705DF8047B704780B400AF00BFBD465DF8BC
S1133B80047B704790B585B000AF786039607B687E
S1133B901B0903F00F03FB60FB68013B082B00F2D9
S1133BA0F48001A252F823F0CD3B00008B3D0000CD
S1133BB08B3D0000013C00008B3D00008B3D00006C
S1133BC0293C0000753C0000373D00003B68002B99
S1133BD002D03B68082B00BFFFF7CEFE6D4B1B687D
S1133BE023F4E0323B68013B9B036A4913430B60B7
S1133BF0FCF7F6FAB8600021B868FFF7DFFEC5E00D
S1133C003B68002B03D03B68B3F5007F00BF3868E6
S1133C10FFF788FD38605F4B9B6823F00F025D4916
S1133C203B6813438B60B1E03B68002B03D03B68D7
S1133C30B3F5007F00BFFFF79FFEFCF7F5FA0246DD
S1133C403B68B2FBF3F31846FFF792FD3868FFF7C1
S1133C5069FD38604F4B5B6823F00F024D493B68A8
S1133C6013434B60FCF7BCFAB8600021B868FFF757
S1133C70A5FE8BE07B68484A93421ED0464A934295
S1133C8003D8464A934207D054E0454A934225D08C
S1133C90444A93423ED04DE00420FFF725FF3868A4
S1133CA0FFF740FD38603B4B9B6E23F0F0023B680E
S1133CB01B01384913438B663CE00420FFF714FFD3
S1133CC03868FFF72FFD3860324B9B6E23F4706227
S1133CD03B681B022F4913438B662BE03B680F2B79
S1133CE002D93B68802B00BF0420FFF7FDFE386833
S1133CF0FFF718FD3860274B9B6E23F440541020C7
S1133D00FFF710FD02463B689B1A1B03214A23431D
S1133D1093660FE00420FFF7E7FE3868FFF702FD23
S1133D2038601C4B9B6E23F003021A493B68134313
S1133D308B6600BF2AE07B681B4A934203D01B4A70
S1133D40934210D020E04020FFF7CEFE3868FFF702
S1133D50E9FC38600F4B1B6F23F003020D493B68ED
S1133D6013430B6710E04020FFF7BEFE3868FFF7EF
S1133D70D9FC3860074B1B6F23F030023B681B01F2
S1133D80044913430B6700BF00E000BF00BF1437B2
S1133D90BD4690BD00800C4080261600801612009F
S1133DA08000280080062C009007180090171A0045
S1133DB080B586B000AF78600B46FB7000233B6192
S1133DC07B681B0A03F00F03013B092B45D801A2B2
S1133DD052F823F0113E0000173E0000FD3D0000A4
S1133DE05B3E00005B3E00001D3E0000273E0000DD
S1133DF05B3E00005B3E0000313E0000194B7B61DE
S1133E00194800F03DF803461846FFF7B1FC12E0EC
S1133E10164B7B610FE0164B7B610CE0154B7B610D
S1133E2001233B6107E0144B7B6110233B6102E0FB
S1133E30124B7B6100BF7B681B0B03F01F03FB600D
S1133E403B69002B02D03869FFF74EFEFB781A4617
S1133E50F9687869FFF73AFC00E000BF1837BD46FF
S1133E6080BD00BF40800C400043020008800C402D
S1133E7044800C4058800C4060800C4078800C409A
S1133E8090B585B000AF78607B6803F47813B3F520
S1133E90C01F00F0AB80B3F5C01F1AD8B3F5602F74
S1133EA000F0BF80B3F5602F08D8B3F5003F3CD0D5
S1133EB0B3F5802F2DD0002B27D0BEE0B3F5901F93
S1133EC03CD0B3F5B01F47D0B3F5801F00F0AD80F0
S1133ED0B3E0B3F5101F00F0AC80B3F5101F0AD89F
S1133EE0B3F5E01F25D0B3F5F01F7AD0B3F5D01F9A
S1133EF000F08980A1E0B3F5281F4ED0B3F5301F40
S1133F0062D0B3F5201F35D097E0FCF78DF9F86047
S1133F1096E0FCF789F9F8604C4B9B6803F00F03BB
S1133F20FA6822FA03F3FB608AE0FCF759F9F860B7
S1133F3086E04748FFF762FDF86081E04448FFF7F8
S1133F405DFDF860414B9B6E1B0903F00F03FA689B
S1133F5022FA03F3FB6073E03D48FFF74FFDF8607E
S1133F603A4B9B6E1B0A03F00F03FA6822FA03F321
S1133F70FB6065E03648FFF741FDF860334B9B6E0C
S1133F801B0B03F003041020FFF7CCFB0346234470
S1133F90FA6822FA03F3FB6052E02D48FFF72EFD86
S1133FA0F8602A4B9B6E1B0B03F00303FA6822FA9A
S1133FB003F3FB60254BDB6F03F007030133FA685F
S1133FC0B2FBF3F3FB603BE02148FFF717FDF86019
S1133FD01E4B9B6E03F00303FA6822FA03F3FB60A3
S1133FE02EE01C48FFF70AFDF86029E01948FFF7A6
S1133FF005FDF860154B1B6F03F00303FA6822FA02
S113400003F3FB601CE01348FFF7F8FCF8600F4B68
S11340101B6F1B0903F00303FA6822FA03F3FB6026
S11340200EE0FFF73DFCF8600AE0FFF7E1FBF86003
S113403006E0FFF773FDF86002E00023FB6000BFB9
S1134040FB6818461437BD4690BD00BF00800C4085
S113405002001C0003001E0080B485B000AF78602D
S11340600123FB737B6803F00F03BB60BB68013B58
S1134070062B00F2938001A252F823F0994000002D
S1134080CF4000000B4100009D4100009D41000015
S11340904741000069410000454BDB6A03F470535B
S11340A0B3F5805F09D0B3F5005F03D0B3F5006FBB
S11340B006D008E00223FB7308E00323FB7305E04A
S11340C00423FB7302E00523FB7300BF69E0384B54
S11340D09B6A03F00303022B06D0032B07D0012BAA
S11340E008D10323FB730FE00223FB730CE00623C8
S11340F0FB7309E02E4B9B6A03F48033002B02D040
S11341000A23FB7300E000BF4BE0294B9B6A03F0DA
S11341100C03082B06D00C2B07D0042B08D1032347
S1134120FB730FE00223FB730CE00623FB7309E02F
S11341301F4B9B6A03F48013002B02D00A23FB73EA
S113414000E000BF2DE01A4B1B6803F08053002BE6
S113415003D0B3F1805F03D023E00723FB7302E0B5
S11341600923FB7300BF1CE0114BDB6A03F46033CB
S1134170B3F5803F08D0B3F5003F08D0B3F5004F46
S113418008D10923FB7308E00223FB7305E0032332
S1134190FB7302E00123FB7300BF02E00023FB7307
S11341A000BFFB7B18461437BD465DF8047B70479F
S11341B000800C4080B588B000AF78600B46FB707F
S11341C00323FB610323FB7600233B617B6803F03D
S11341D00F03FB60FB68013B062B00F2248101A264
S11341E052F823F001420000CF420000CF42000009
S11341F0274400002744000095430000BF4300000B
S1134200FB78023B082B00F2108101A252F823F044
S1134210354200003F420000494200008342000052
S11342202B4400002B4400002B4400002B440000CE
S11342302B4400000423FB610023FB7629E00323C5
S1134240FB610123FB7624E00223FB610223FB765E
S11342507948FFF78DFAFCF767F80246774B9A42E4
S113426006D9774B1B68764A43F06003136010E06D
S1134270734B1B6823F06003714A43F020031360FF
S113428007E00123FB610323FB766B48FFF770FA19
S113429000BFFB7E01220121184600F0D7F8FFF78A
S11342A06BFBFFF761FC664AFB6953626548FFF7E5
S11342B0E7FD03461846FFF75BFAFBF791FFB8608A
S11342C00021B868FFF77AFBFFF755FCB0E0FB78F4
S11342D0013B092B00F2AB8001A252F823F000BF8E
S11342E0094300000F4300001F4300002F44000057
S11342F02F4400002F4300002F4400002F440000EF
S11343002F4400004B43000000237B6122E0012284
S11343100121002000F09AF802237B611AE00122B7
S11343200121012000F092F801237B6112E0FBF7E8
S113433057FFB860B868FFF71BFA0122042142480E
S1134340FFF7C4F903237B6104E000237B610123AD
S11343503B6100BFFB68022B0DD1394B9B6A23F4F0
S1134360803323F003037A691A433B691B043449FD
S113437013438B625CE0324B9B6A23F4801323F07B
S11343800C037A6992001A433B691B052C491343B9
S11343908B624DE0FB78072B02D0092B07D047E056
S11343A0274B1B68264A23F08053136006E0244BF6
S11343B01B68234A43F08053136000BF38E0FB7846
S11343C0032B14D0092B22D0022B00D030E0012281
S11343D00121002000F03AF8194B40225A6200BF34
S11343E0174BDB6A03F48033002BF9D01AE0012267
S11343F00121012000F02AF8114B60225A6200BF0B
S11344000F4BDB6A03F40033002BF9D00AE00C4BAA
S113441020225A6200BF0A4BDB6A03F40043002BDC
S1134420F9D000BF04E000BF02E000BF00E000BF1D
S11344302037BD4680BD00BF01366E010048E8014B
S113444000800C400043020040800C4080B586B0E0
S113445000AF0346FB710B46BB7113467B71FB79BE
S1134460042B48D801A252F823F000BFB94400003D
S1134470AB4400008F440000814400009D440000D0
S113448001233B610223FB6001237B611DE00423C4
S11344903B610823FB6003237B6116E010233B612F
S11344A02023FB6005237B610FE040233B618023D5
S11344B0FB6007237B6108E04FF480733B614FF49A
S11344C00073FB6009237B6100BFBB79002B0ED016
S11344D00B4A3B6913627B79002B0DD000BF7969CD
S11344E00848FFF70AF90346002BF8D004E0044A11
S11344F0FB68136200E000BF1837BD4680BD00BFF3
S113450000800C402C800C4080B483B000AF034684
S1134510FB7197F90730002B0ADA0D4AFB7903F097
S11345200F03043B13441B7EDBB25B09DBB208E0E0
S1134530084A97F90730134493F80033DBB25B0958
S1134540DBB218460C37BD465DF8047B704700BFEC
S113455000ED00E000E100E080B483B000AFEFF3D1
S113456010833B603B687B6072B67B6818460C37EF
S1134570BD465DF8047B704780B483B000AF7860BB
S11345807B68002B00D162B600BF0C37BD465DF8D6
S1134590047B704780B588B000AF0346FB7197F980
S11345A0073013F10C0F03DB97F90730272B00BFFB
S11345B0EFF310833B613B6903F00103002B01D04F
S11345C0012335E097F90730184600F037F8034621
S11345D0002B01D001232BE097F907301846FFF791
S11345E093FFF861EFF31183FB60FB68BB61BB6968
S11345F0002B06D0BB695B09FA699A4201D30123F7
S113460016E00D4B5B68C3F308037B617B69002BE9
S11346100DD07B69DBB2103BDBB25BB21846FFF70F
S113462073FF0246FB69934201D3012300E0002398
S113463018462037BD4680BD00ED00E080B485B04B
S113464000AF0346FB7197F90730002B03DB97F9A2
S11346500730272B00BF0D4BFB6097F907305A0931
S1134660FB6853F82220FB7903F01F0322FA03F3BB
S113467003F00103002B0CBF01230023DBB2184617
S11346801437BD465DF8047B704700BF00E100E0CD
S113469080B483B000AF0346FB71FB7903F01F02C3
S11346A0074997F907305B09012000FA02F241F843
S11346B0232000BF0C37BD465DF8047B704700BF64
S11346C000E100E080B483B000AF0346FB71FB79E6
S11346D003F01F02074997F907305B09012000FA2C
S11346E002F2203341F8232000BF0C37BD465DF8A9
S11346F0047B704700E100E080B483B000AF034660
S1134700FB71FB7903F01F02074997F907305B0936
S1134710012000FA02F2603341F8232000BF0C3775
S1134720BD465DF8047B704700E100E080B487B0CB
S113473000AFF860B9607A60FB6803F10473DA00D3
S1134740BB6813449B007B617B697A681A6000BF75
S11347501C37BD465DF8047B7047000080B489B007
S113476000AF7860084611461A460346FB700B46B4
S1134770BB7013467B707B681A013D4B9B681344E6
S1134780BB61BB78002B02D0BB69FB6105E07B6891
S11347901A01374BDB681344FB61BB69DB687B613F
S11347A07B69002B02D0BA787B691A72FB6A002BF2
S11347B014D0FB699B689B0E03F003033B613B69C8
S11347C0032B03D1FB69FA6A1A6007E03A6B3B6971
S11347D09A40FB6A13441A46FB691A60BB6A002BB1
S11347E014D0FB699B689B0F03F003033B613B6997
S11347F0032B03D1FB69BA6A5A6007E03A6B3B6941
S11348009A40BB6A13441A46FB695A6001227B68CA
S113481002FA03F3FB607B78002B03D0144AFB6895
S1134820936102E0124AFB68D361BB78002B03D08A
S11348300F4AFB68536302E00D4AFB681363FB698C
S11348409B6823F47F5323F03703BB603B6B1B014E
S1134850BA681343BB60FB78BA681343BB60FB6957
S1134860BA689A6000BF2437BD465DF8047B704780
S113487000200C4080B58AB000AF344B03F5805360
S11348801B68BB61314B03F580530C331B68BA6959
S11348901340BB612D4B9B6B7B61BA697B691340F1
S11348A03B620023FB6149E000237B623BE03B6AFF
S11348B003F00103002B30D0244B9B683B610122A1
S11348C07B6A02FA03F3FB60204B03F58053083341
S11348D0FA681A607B6A1B013A691344DB68BB609F
S11348E0BB68002B19D0BB681B7A7B60BB681B7A42
S11348F083F00103DAB2BB681A72BB681B68002B31
S11349000BD0BB681B68786A7A68002A14BF01223E
S11349100022D1B2BA68526898473B6A5B083B628E
S11349207B6A01337B623B6A002BC0D17B69DB432A
S1134930BA6913403B62FB690133FB61FB69012BDC
S1134940B2DD00BF2837BD4680BD00BF00200C404B
S113495080B588B004AFF8607B600B46FB721346E9
S1134960BB72B97AFA7AFB690293BB6901937B68DB
S113497000930B460121F868FFF7F0FE0122FB6863
S11349809A40034B9A6200BF1037BD4680BD00BFFA
S113499000200C4080B588B004AFF8607A603B60BA
S11349A00B46FB72FA7A7B6A02933B6A0193FB69BA
S11349B00093134600220321F868FFF7CFFEFA7A2A
S11349C0BB6902933B6801937B6800931346012201
S11349D00321F868FFF7C2FE0122FB689A40034BEB
S11349E09A6200BF1037BD4680BD00BF00200C4056
S11349F080B584B000AF786039601E4B9B68FB6063
S1134A003B6899687B681B01FA6813440A46DA60BC
S1134A103B681B78002B05D001227B689A40154B1C
S1134A209A6304E001227B689A40124BDA631149CD
S1134A303B685A687B6803F5886341F823203B6828
S1134A405B78002B0DD001227B689A40094B03F55B
S1134A50805308331A60012279680748FFF766FE1D
S1134A6004E0002279680448FFF760FE00BF1037B5
S1134A70BD4680BD00200C400C300C4080B487B093
S1134A8000AFF8600B467A60FB72FB7A002B03D010
S1134A90154B9B687B6102E0134BDB687B61FB6811
S1134AA01B017A6913447B617B681B789A077B68D6
S1134AB09B781B071A437B685B789B061A437B68C9
S1134AC09B781B0613431A467B681B799B0413438C
S1134AD07A68D27892031A437B699A6000BF1C37C4
S1134AE0BD465DF8047B704700200C4080B483B061
S1134AF000AF7860084B9A6A7B6822FA03F303F0EC
S1134B000103002B14BF01230023DBB218460C372A
S1134B10BD465DF8047B704700200C4080B582B030
S1134B2000AF78600B46FB70FB78002B05D00122A8
S1134B3079680648FFF7FAFD04E001227968044821
S1134B40FFF7F4FD00BF0837BD4680BD24200C40AC
S1134B5020200C4080B582B000AF7860012110485D
S1134B60FFF726F900F0A0F80020FFF7C5FD0020AC
S1134B70FFF78EFD0B4B03F580530C334FF00042CF
S1134B801A607B685A68074B9A607B681B785B01E4
S1134B90044A43F00103536000BF0837BD4680BD9B
S1134BA00003020000200C4080B48BB000AFF8601A
S1134BB07B600B46FB721346BB7297F83830002BB0
S1134BC003D0012387F8273002E0032387F8273036
S1134BD0FB7A002B06D0FB681A01324B9B68134406
S1134BE03B6205E0FB681A012E4BDB6813443B6211
S1134BF03B6B002B14D03B6A9B689B0E03F00303B2
S1134C00FB61FB69032B03D13B6A3A6B1A6007E033
S1134C107A6BFB699A403B6B13441A463B6A1A60F1
S1134C207B68002B14D03B6A9B689B0F03F0030343
S1134C30FB61FB69032B03D13B6A7A685A6007E086
S1134C407A6BFB699A407B6813441A463B6A5A6044
S1134C500122FB6802FA03F3BB61BB7A002B03D089
S1134C60104ABB69936102E00E4ABB69D3613B6A97
S1134C709B6823F47F5323F037037B617B6B1B0119
S1134C807A6913437B6197F827307A6913437B6110
S1134C903B6A7A699A6000BF2C37BD465DF8047B95
S1134CA0704700BF00200C4080B582B000AF0020E8
S1134CB0FFF708FD1C4B00225A601B4B40F6FF72A5
S1134CC0DA61194B40F6FF725A62174B40F6FF72D5
S1134CD0DA62154B40F6FF725A63134B40F6FF72CB
S1134CE0DA63114B0122DA640F4B03F580530C3362
S1134CF000221A600C4B03F5805308330B4A1A60E8
S1134D0000237B6009E0084A7B6803F5886300217F
S1134D1042F823107B6801337B607B680B2BF2DD48
S1134D2000BF0837BD4680BD00200C40FF0F008047
S1134D3080B487B000AFF860B9607A60FB6803F1B3
S1134D400473DA00BB6813449B007B617B697A6857
S1134D501A6000BF1C37BD465DF8047B704780B401
S1134D6085B000AFF860B9607A60FB681A68BB6808
S1134D70DB431A407B681A43FB681A6000BF143790
S1134D80BD465DF8047B704780B483B000AF034632
S1134D903960FB71FB79002B0DD0FB79012B0AD014
S1134DA0FB79022B07D0FB79032B04D0FB79042B6E
S1134DB001D0FB79052B01223B6802FA03F3084971
S1134DC0FA7918461346DB0013449B000B44143352
S1134DD0186000BF0C37BD465DF8047B704700BF08
S1134DE00060004080B483B000AF03463960FB71BB
S1134DF0FB79002B0DD0FB79012B0AD0FB79022B18
S1134E0007D0FB79032B04D0FB79042B01D0FB7969
S1134E10052B01223B6802FA03F30849FA79184684
S1134E201346DB0013449B000B441033186000BF8F
S1134E300C37BD465DF8047B704700BF006000403E
S1134E4080B586B000AFB9607A601A460346FB733A
S1134E501346BB7300237B61FB7B002B0DD0FB7BD4
S1134E60012B0AD0FB7B022B07D0FB7B032B04D046
S1134E70FB7B042B01D0FB7B052B7B68072B0ED817
S1134E807B689B00072202FA03F1FA7B7B689B0094
S1134E9002FA03F31A461948FFF761FF10E07B6832
S1134EA0083B7B617B699B00072202FA03F1FA7BD2
S1134EB07B699B0002FA03F31A461148FFF74FFF80
S1134EC0BB7B1A4679680F48FFF732FF97F820300A
S1134ED01A4679680C48FFF72BFF01227B689A4039
S1134EE00A4BC3F81C2197F824301A4679680848FD
S1134EF0FFF71EFF00BF1837BD4680BD00610040AC
S1134F0004610040086100400C6100400060004002
S1134F101061004080B584B000AFB9607B60034687
S1134F20FB731346BB73FB7B002B0DD0FB7B012B68
S1134F300AD0FB7B022B07D0FB7B032B04D0FB7B2B
S1134F40042B01D0FB7B052BBB7B002B0DD07B6896
S1134F50002B05D0FB7BB9681846FFF743FF04E03C
S1134F60FB7BB9681846FFF70FFFBB68072B20D8F7
S1134F702D49FA7B1346DB0013449B000B44043396
S1134F801A68BB689B000F2101FA03F3DB4313404B
S1134F90B97BBA68920001FA02F211462248FA7B00
S1134FA019431346DB0013449B0003440433196084
S1134FB025E01D49FA7B1346DB0013449B000B4498
S1134FC008331A68BB6803F18043083B9B000F2138
S1134FD001FA03F3DB4302EA0301BA7BBB6803F182
S1134FE08043083B9B0002FA03F30F48FA7B194302
S1134FF01346DB0013449B00034408331960BB7B56
S1135000002B0DD17B68002B05D0FB7BB9681846BB
S1135010FFF7E8FE04E0FB7BB9681846FFF7B4FE2F
S113502000BF1037BD4680BD0060004080B483B02F
S113503000AF786039607B681B6C03F00103002BC0
S113504007D100BF7B685A6C3B681340002BF9D131
S113505000E000BF0C37BD465DF8047B704780B5A7
S113506082B000AF78600B46FB7000BF7B689B6822
S113507003F01003002BF9D040217868FFF7D6FF26
S1135080FA787B689A6200BF0837BD4680BD80B459
S113509087B000AFF860B9607A60FB6803F104730D
S11350A0DA00BB6813449B007B617B697A681A60F1
S11350B000BF1C37BD465DF8047B704780B485B0E3
S11350C000AF78607B68002B02D0012B04D007E08E
S11350D0084B9B68FB6006E0064BDB68FB6002E064
S11350E00023FB6000BFFB6818461437BD465DF81B
S11350F0047B70470000084080B485B000AF78603E
S113510039607B68002B02D0012B03D008E0074BE9
S1135110FB6002E0064BFB6000BFFB683A681A6064
S11351201437BD465DF8047B704700BF0800084093
S11351300C00084080B582B000AF0346FB71FB79D8
S11351401A4600210348FFF7A2FF00BF0837BD46F7
S113515080BD00BF0000084080B485B000AF786017
S11351607B681B78002B02D00123FB6001E0002345
S1135170FB607B685B78002B03D0FB6843F0020381
S1135180FB607B689B78002B03D0FB6843F004032F
S1135190FB60044AFB68136000BF1437BD465DF82A
S11351A0047B70470000084080B500AF0020FFF783
S11351B0C1FF0120FFF7BEFF00BF80BD80B586B0F0
S11351C000AFF860B9607A60FB70BB68002B03D154
S11351D02448FEF755FEB860FB78202B0CD0202B1A
S11351E002DC002B05D03AE0402B08D0602B09D01C
S11351F035E010237B6108E008237B6105E006238A
S11352007B6102E004237B6100BFBB689A007B6979
S1135210796801FB03F35B0813443B617B697A689B
S113522002FB03F33A69B2FBF3F33B613B69043BD2
S11352303B613B699B013B613A690B4B13403B610A
S1135240FB681B6823F06002FB681A60FB681A683D
S1135250FB781A43FB681A60FB683A695A6118378D
S1135260BD4680BD40810400C0FF1F0080B586B0EC
S113527000AFF860B9607A60BB68002B03D10A48BC
S1135280FEF7FEFDB860BB685A1E7B685B00B2FB8C
S1135290F3F37B617B691B027B61FB687A695A616A
S11352A000BF1837BD4680BD4081040080B485B07E
S11352B000AF78600B46FB707B68134A93420ED0B4
S11352C07B68124A93420AD07B68114A934206D003
S11352D07B68104A934202D07B680F4A934200BF16
S11352E0FB78DB43FB60FB6803F00503FB60FB68B2
S11352F05A007B68DA60FA787B68DA6000BF14379A
S1135300BD465DF8047B704700C0004000C4004007
S113531000C8004000E0004000E4004080B582B0D6
S113532000AF786039607B68294A93420ED07B686D
S1135330284A93420AD07B68274A934206D07B6866
S1135340264A934202D07B68254A934200BF78687C
S113535000F0B8F83B689B7C002B05D07B681B6889
S113536043F080427B681A603B68DB7C002B07D0EB
S11353703B681B7D43F01003DBB21A467B689A65D9
S11353803B685B7B1A463B681B8A13433A68D289A5
S11353901A437B685A603B6859683B689A683B6863
S11353A01B7B7868FFF70AFF3B685B7D002B05D009
S11353B07B681B6843F480327B681A603B681B7807
S11353C01A467B68DA6000BF0837BD4680BD00BF5F
S11353D000C0004000C4004000C8004000E000409D
S11353E000E4004080B582B000AF786039607B682B
S11353F0314A934206D07B68304A934202D07B689C
S11354002F4A934200BF786800F05CF87B681A6802
S11354103B681B8A43F001039BB219463B689B7BA4
S1135420002B02D04FF4806300E000230B431A43A7
S11354307B681A607B681B683A68127D002A02D078
S11354404FF0005200E000221A437B681A603B6868
S11354509B7C002B07D03B68DB7C43F01003DBB262
S11354601A467B689A653B681B7B43F480527B68D1
S11354705A603B6859683B689B681A467868FFF72E
S1135480F5FE3B685B7B002B02D07B681022DA6060
S11354903B685B7D002B05D07B681B6843F480323E
S11354A07B681A603B681B781A467B68DA6000BF29
S11354B00837BD4680BD00BF00C0004000C40040A6
S11354C000C8004080B483B000AF78607B68244A91
S11354D093420ED07B68234A93420AD07B68224AC7
S11354E0934206D07B68214A934202D07B68204ACB
S11354F0934200BF7B6840F6AA62DA607B680022B0
S11355001A607B6841F205025A607B6800229A6047
S11355107B6800225A617B680022DA647B6841F66A
S1135520F9729A647B6800225A657B680C4A93423C
S113553002D17B6800221A657B6800229A657B6829
S1135540084A934203D07B68074A934202D17B689E
S11355500022DA6500BF0C37BD465DF8047B704756
S113556000C0004000C4004000C8004000E000400B
S113557000E4004080B483B000AF78600B46FB7059
S113558000BF7B681B6903F04003002BF9D0FA7855
S11355907B685A6300BF0C37BD465DF8047B7047D7
S11355A080B483B000AF7860044A7B68C2F81C31D1
S11355B000BF0C37BD465DF8047B704700600040B7
S11355C080B483B000AF7860074BD3F810217B68B8
S11355D0DB4305491340C1F8103100BF0C37BD4609
S11355E05DF8047B704700BF0060004080B483B066
S11355F000AF7860064BD3F8102105497B6813434C
S1135600C1F8103100BF0C37BD465DF8047B70470C
S11356100060004080B400AF00BFBD465DF8047B6D
S11356207047000080B500AF574B04221A70574BE7
S11356301B68012254491846FCF7CAF9544B382216
S11356401A70534B0C225A70514B10229A704F4BC4
S11356501B6803224E491846FCF7BAF94C4B392211
S11356601A704B4BA1225A70494B00229A70474B37
S11356701B68032246491846FCF7AAF9444B3A2210
S11356801A70434B05225A70414B06229A703F4BC5
S11356901B6803223E491846FCF79AF93C4B3B220F
S11356A01A703B4B07225A70394B08229A70374BB9
S11356B01B68032236491846FCF78AF9344B3C220E
S11356C01A70334B09225A70314B0A229A702F4BAD
S11356D01B6803222E491846FCF77AF92C4B3D220D
S11356E01A702B4B23225A70294B0A229A70274B8B
S11356F01B68032226491846FCF76AF9244B3E220C
S11357001A70234B23225A70214B0A229A701F4B82
S11357101B6803221E491846FCF75AF91C4B412208
S11357201A701B4B00225A70194BC8229A70174BDF
S11357301B68032216491846FCF74AF9144B422207
S11357401A70134B0F225A70114BDF229A700F4BB1
S11357501B6803220E491846FCF73AF90A4B062245
S11357601A700A4B1B68012207491846FCF730F9E6
S1135770054B05221A70054B1B6801220249184685
S1135780FCF726F900BF80BD980700200C0000201C
S11357909C070020B0B588B000AF0A4B3C1D1D46E5
S11357A00FCD0FC495E8070084E80700064B1B687B
S11357B03A1D11461846FBF79FFF00BF2037BD4630
S11357C0B0BD00BFB48700000C000020B0B588B0A5
S11357D000AF0A4B3C461D460FCD0FC495E80F00A1
S11357E084E80F00064B1B683A4611461846FDF73D
S11357F0BDFC00BF2037BD46B0BD00BFD087000050
S11358001001002080B485B000AFF860B9607A6000
S11358103B6000BF1437BD465DF8047B7047000051
S113582080B582B000AF786039601A4B5B7803F0C2
S11358301003DBB2002B1FD000F074F800F0AAF8BC
S113584000F0C8F800F068F9134B1868134B8C2269
S11358501349FDF7B5FE0F4B00225A701020FFF7D5
S1135860C5FE104B02221A700F4B1B6801220D4912
S11358701846FCF7ADF809E00A4BFE221A700A4BF1
S113588018680323034A0749FCF76EF800BF08377A
S1135890BD4680BD8007002010010020055800008F
S11358A058070020980700200C00002080B500AFA6
S11358B01020FFF785FE074BFE221A70064B18686E
S11358C00323064A0349FCF74FF81020FFF768FE4C
S11358D000BF80BD980700200C0000208007002036
S11358E080B582B002AF0123012204210320FFF717
S11358F011FB0123019301230093012304220421BA
S11359000320FFF79DFAFBF700F905490420FBF794
S11359100DF91020FFF76AFE00BFBD4680BD00BF31
S1135920AD58000080B500AF144BB3221A70144B6D
S113593018680323134A1149FCF716F80F4BB222D7
S11359401A700F4B186803230F4A0C49FCF70CF824
S11359500A4BB1221A700A4B186803230B4A0749F1
S1135960FCF702F8054BB0221A70054B18680323A4
S1135970074A0249FBF7F8FF00BF80BD98070020E3
S11359800C000020890700208C0700208F070020CE
S11359909207002080B500AF0A4BE2221A700A4B2E
S11359A018680323094A0749FBF7DEFF054BE32286
S11359B01A70054B18680323054A0249FBF7D4FF04
S11359C000BF80BD980700200C0000208307002042
S11359D08607002080B400AF4D4B9B7A1B11DBB2CD
S11359E003F00103DBB23033DAB24A4B1A70484B8E
S11359F09B7A03F00F03DBB23033DAB2454B5A70B3
S1135A00434B9B7B1B11DBB203F00303DBB230334C
S1135A10DAB2404BDA703E4B9B7B03F00F03DBB2F0
S1135A203033DAB23B4B1A71394BDB7A1B09DBB2E8
S1135A303033DAB2374B9A71354BDB7A03F00F030C
S1135A40DBB23033DAB2334BDA71314B5B7C1B118E
S1135A50DBB203F00303DBB23033DAB22D4B5A72FC
S1135A602B4B5B7C03F04003002B09D0284B5B7C61
S1135A7003F00F03DBB23233DAB2264B9A7208E03A
S1135A80234B5B7C03F00F03DBB23033DAB2214BE0
S1135A909A721F4B1B7C1B11DBB203F00703DBB2B2
S1135AA03033DAB21B4B1A73194B1B7C03F00F0310
S1135AB0DBB23033DAB2174B5A73154B1B7D1B1113
S1135AC0DBB203F00703DBB23033DAB2114BDA7323
S1135AD00F4B1B7D03F00F03DBB23033DAB20D4BF7
S1135AE01A740B4BDB7C1B09DBB23033DAB2094B83
S1135AF09A74074BDB7C03F00F03DBB23033DAB26A
S1135B00044BDA7400BFBD465DF8047B704700BFE8
S1135B10800700205807002080B586B000AF1F4BD7
S1135B201B791B021AB21D4B5B791BB21343FB8218
S1135B301A4BDB791B021AB2184B1B7A1BB21343A4
S1135B401BB2BB82B7F9163007EE903AF8EEE77A4B
S1135B50C7ED047ABB8A07EE903AB8EE677ADFEDB8
S1135B60106AC7EE267AC7ED037A97ED047AD7ED6B
S1135B70037A77EE277AC7ED047A386900F0E6F9FC
S1135B803B460C2200F0BAFB3B461A460549064840
S1135B9000F024FC00BF1837BD4680BD80070020FC
S1135BA000008047F08700006D07002080B584B0B6
S1135BB002AFFFF72FFDFFF7EDFDFFF707FEFFF73D
S1135BC031FDFFF78DFEFBF7E7F82848FBF79EF859
S1135BD03860274B2F225A71254B5A79244B9A70DF
S1135BE0234B20221A75224B1A7D214B1A72204B0B
S1135BF03A225A741E4B5A7C1D4B9A731C4B9A7B47
S1135C001B4BDA721B4B02221A701B4B1B680122BE
S1135C1018491846FBF7DCFE164BFE221A70164B89
S1135C2018680323154A1349FBF79EFE00237B6083
S1135C3000237B6007E0114A7B68134400221A703A
S1135C407B6801337B607B68022BF4DD074B1868AB
S1135C50002300930A4B4FF47A720121FBF7ECF80E
S1135C60002318460837BD4680BD00BF7C070020CE
S1135C7058070020980700200C000020800700200F
S1135C802158000081F0004102E000BF83F000438E
S1135C9030B54FEA41044FEA430594EA050F08BFC3
S1135CA090EA020F1FBF54EA000C55EA020C7FEA87
S1135CB0645C7FEA655C00F0E2804FEA5454D4EB04
S1135CC05555B8BF6D420CDD2C4480EA020281EACE
S1135CD0030382EA000083EA010180EA020281EA06
S1135CE00303362D88BF30BD11F0004F4FEA013158
